{
  "_format": "hh-sol-artifact-1",
  "contractName": "BlockchainFinalExamNFT",
  "sourceName": "contracts/BlockchainFinalExamNFT.sol",
  "abi": [
    {
      "inputs": [],
      "stateMutability": "nonpayable",
      "type": "constructor"
    },
    {
      "inputs": [],
      "name": "ERC721EnumerableForbiddenBatchMint",
      "type": "error"
    },
    {
      "inputs": [
        {
          "internalType": "address",
          "name": "sender",
          "type": "address"
        },
        {
          "internalType": "uint256",
          "name": "tokenId",
          "type": "uint256"
        },
        {
          "internalType": "address",
          "name": "owner",
          "type": "address"
        }
      ],
      "name": "ERC721IncorrectOwner",
      "type": "error"
    },
    {
      "inputs": [
        {
          "internalType": "address",
          "name": "operator",
          "type": "address"
        },
        {
          "internalType": "uint256",
          "name": "tokenId",
          "type": "uint256"
        }
      ],
      "name": "ERC721InsufficientApproval",
      "type": "error"
    },
    {
      "inputs": [
        {
          "internalType": "address",
          "name": "approver",
          "type": "address"
        }
      ],
      "name": "ERC721InvalidApprover",
      "type": "error"
    },
    {
      "inputs": [
        {
          "internalType": "address",
          "name": "operator",
          "type": "address"
        }
      ],
      "name": "ERC721InvalidOperator",
      "type": "error"
    },
    {
      "inputs": [
        {
          "internalType": "address",
          "name": "owner",
          "type": "address"
        }
      ],
      "name": "ERC721InvalidOwner",
      "type": "error"
    },
    {
      "inputs": [
        {
          "internalType": "address",
          "name": "receiver",
          "type": "address"
        }
      ],
      "name": "ERC721InvalidReceiver",
      "type": "error"
    },
    {
      "inputs": [
        {
          "internalType": "address",
          "name": "sender",
          "type": "address"
        }
      ],
      "name": "ERC721InvalidSender",
      "type": "error"
    },
    {
      "inputs": [
        {
          "internalType": "uint256",
          "name": "tokenId",
          "type": "uint256"
        }
      ],
      "name": "ERC721NonexistentToken",
      "type": "error"
    },
    {
      "inputs": [
        {
          "internalType": "address",
          "name": "owner",
          "type": "address"
        },
        {
          "internalType": "uint256",
          "name": "index",
          "type": "uint256"
        }
      ],
      "name": "ERC721OutOfBoundsIndex",
      "type": "error"
    },
    {
      "inputs": [
        {
          "internalType": "address",
          "name": "owner",
          "type": "address"
        }
      ],
      "name": "OwnableInvalidOwner",
      "type": "error"
    },
    {
      "inputs": [
        {
          "internalType": "address",
          "name": "account",
          "type": "address"
        }
      ],
      "name": "OwnableUnauthorizedAccount",
      "type": "error"
    },
    {
      "anonymous": false,
      "inputs": [
        {
          "indexed": true,
          "internalType": "address",
          "name": "owner",
          "type": "address"
        },
        {
          "indexed": true,
          "internalType": "address",
          "name": "approved",
          "type": "address"
        },
        {
          "indexed": true,
          "internalType": "uint256",
          "name": "tokenId",
          "type": "uint256"
        }
      ],
      "name": "Approval",
      "type": "event"
    },
    {
      "anonymous": false,
      "inputs": [
        {
          "indexed": true,
          "internalType": "address",
          "name": "owner",
          "type": "address"
        },
        {
          "indexed": true,
          "internalType": "address",
          "name": "operator",
          "type": "address"
        },
        {
          "indexed": false,
          "internalType": "bool",
          "name": "approved",
          "type": "bool"
        }
      ],
      "name": "ApprovalForAll",
      "type": "event"
    },
    {
      "anonymous": false,
      "inputs": [
        {
          "indexed": false,
          "internalType": "uint256",
          "name": "_fromTokenId",
          "type": "uint256"
        },
        {
          "indexed": false,
          "internalType": "uint256",
          "name": "_toTokenId",
          "type": "uint256"
        }
      ],
      "name": "BatchMetadataUpdate",
      "type": "event"
    },
    {
      "anonymous": false,
      "inputs": [
        {
          "indexed": false,
          "internalType": "uint256",
          "name": "_tokenId",
          "type": "uint256"
        }
      ],
      "name": "MetadataUpdate",
      "type": "event"
    },
    {
      "anonymous": false,
      "inputs": [
        {
          "indexed": true,
          "internalType": "address",
          "name": "previousOwner",
          "type": "address"
        },
        {
          "indexed": true,
          "internalType": "address",
          "name": "newOwner",
          "type": "address"
        }
      ],
      "name": "OwnershipTransferred",
      "type": "event"
    },
    {
      "anonymous": false,
      "inputs": [
        {
          "indexed": true,
          "internalType": "address",
          "name": "from",
          "type": "address"
        },
        {
          "indexed": true,
          "internalType": "address",
          "name": "to",
          "type": "address"
        },
        {
          "indexed": true,
          "internalType": "uint256",
          "name": "tokenId",
          "type": "uint256"
        }
      ],
      "name": "Transfer",
      "type": "event"
    },
    {
      "inputs": [
        {
          "internalType": "address",
          "name": "to",
          "type": "address"
        },
        {
          "internalType": "uint256",
          "name": "tokenId",
          "type": "uint256"
        }
      ],
      "name": "approve",
      "outputs": [],
      "stateMutability": "nonpayable",
      "type": "function"
    },
    {
      "inputs": [
        {
          "internalType": "address",
          "name": "owner",
          "type": "address"
        }
      ],
      "name": "balanceOf",
      "outputs": [
        {
          "internalType": "uint256",
          "name": "",
          "type": "uint256"
        }
      ],
      "stateMutability": "view",
      "type": "function"
    },
    {
      "inputs": [
        {
          "internalType": "uint256",
          "name": "tokenId",
          "type": "uint256"
        }
      ],
      "name": "burn",
      "outputs": [],
      "stateMutability": "nonpayable",
      "type": "function"
    },
    {
      "inputs": [
        {
          "internalType": "uint256",
          "name": "tokenId",
          "type": "uint256"
        }
      ],
      "name": "getApproved",
      "outputs": [
        {
          "internalType": "address",
          "name": "",
          "type": "address"
        }
      ],
      "stateMutability": "view",
      "type": "function"
    },
    {
      "inputs": [
        {
          "internalType": "address",
          "name": "owner",
          "type": "address"
        },
        {
          "internalType": "address",
          "name": "operator",
          "type": "address"
        }
      ],
      "name": "isApprovedForAll",
      "outputs": [
        {
          "internalType": "bool",
          "name": "",
          "type": "bool"
        }
      ],
      "stateMutability": "view",
      "type": "function"
    },
    {
      "inputs": [],
      "name": "name",
      "outputs": [
        {
          "internalType": "string",
          "name": "",
          "type": "string"
        }
      ],
      "stateMutability": "view",
      "type": "function"
    },
    {
      "inputs": [],
      "name": "owner",
      "outputs": [
        {
          "internalType": "address",
          "name": "",
          "type": "address"
        }
      ],
      "stateMutability": "view",
      "type": "function"
    },
    {
      "inputs": [
        {
          "internalType": "uint256",
          "name": "tokenId",
          "type": "uint256"
        }
      ],
      "name": "ownerOf",
      "outputs": [
        {
          "internalType": "address",
          "name": "",
          "type": "address"
        }
      ],
      "stateMutability": "view",
      "type": "function"
    },
    {
      "inputs": [],
      "name": "renounceOwnership",
      "outputs": [],
      "stateMutability": "nonpayable",
      "type": "function"
    },
    {
      "inputs": [
        {
          "internalType": "address",
          "name": "to",
          "type": "address"
        }
      ],
      "name": "safeMint",
      "outputs": [],
      "stateMutability": "nonpayable",
      "type": "function"
    },
    {
      "inputs": [
        {
          "internalType": "address",
          "name": "from",
          "type": "address"
        },
        {
          "internalType": "address",
          "name": "to",
          "type": "address"
        },
        {
          "internalType": "uint256",
          "name": "tokenId",
          "type": "uint256"
        }
      ],
      "name": "safeTransferFrom",
      "outputs": [],
      "stateMutability": "nonpayable",
      "type": "function"
    },
    {
      "inputs": [
        {
          "internalType": "address",
          "name": "from",
          "type": "address"
        },
        {
          "internalType": "address",
          "name": "to",
          "type": "address"
        },
        {
          "internalType": "uint256",
          "name": "tokenId",
          "type": "uint256"
        },
        {
          "internalType": "bytes",
          "name": "data",
          "type": "bytes"
        }
      ],
      "name": "safeTransferFrom",
      "outputs": [],
      "stateMutability": "nonpayable",
      "type": "function"
    },
    {
      "inputs": [
        {
          "internalType": "address",
          "name": "operator",
          "type": "address"
        },
        {
          "internalType": "bool",
          "name": "approved",
          "type": "bool"
        }
      ],
      "name": "setApprovalForAll",
      "outputs": [],
      "stateMutability": "nonpayable",
      "type": "function"
    },
    {
      "inputs": [
        {
          "internalType": "bytes4",
          "name": "interfaceId",
          "type": "bytes4"
        }
      ],
      "name": "supportsInterface",
      "outputs": [
        {
          "internalType": "bool",
          "name": "",
          "type": "bool"
        }
      ],
      "stateMutability": "view",
      "type": "function"
    },
    {
      "inputs": [],
      "name": "symbol",
      "outputs": [
        {
          "internalType": "string",
          "name": "",
          "type": "string"
        }
      ],
      "stateMutability": "view",
      "type": "function"
    },
    {
      "inputs": [
        {
          "internalType": "uint256",
          "name": "index",
          "type": "uint256"
        }
      ],
      "name": "tokenByIndex",
      "outputs": [
        {
          "internalType": "uint256",
          "name": "",
          "type": "uint256"
        }
      ],
      "stateMutability": "view",
      "type": "function"
    },
    {
      "inputs": [
        {
          "internalType": "address",
          "name": "owner",
          "type": "address"
        },
        {
          "internalType": "uint256",
          "name": "index",
          "type": "uint256"
        }
      ],
      "name": "tokenOfOwnerByIndex",
      "outputs": [
        {
          "internalType": "uint256",
          "name": "",
          "type": "uint256"
        }
      ],
      "stateMutability": "view",
      "type": "function"
    },
    {
      "inputs": [
        {
          "internalType": "uint256",
          "name": "tokenId",
          "type": "uint256"
        }
      ],
      "name": "tokenURI",
      "outputs": [
        {
          "internalType": "string",
          "name": "",
          "type": "string"
        }
      ],
      "stateMutability": "view",
      "type": "function"
    },
    {
      "inputs": [],
      "name": "totalSupply",
      "outputs": [
        {
          "internalType": "uint256",
          "name": "",
          "type": "uint256"
        }
      ],
      "stateMutability": "view",
      "type": "function"
    },
    {
      "inputs": [
        {
          "internalType": "address",
          "name": "from",
          "type": "address"
        },
        {
          "internalType": "address",
          "name": "to",
          "type": "address"
        },
        {
          "internalType": "uint256",
          "name": "tokenId",
          "type": "uint256"
        }
      ],
      "name": "transferFrom",
      "outputs": [],
      "stateMutability": "nonpayable",
      "type": "function"
    },
    {
      "inputs": [
        {
          "internalType": "address",
          "name": "newOwner",
          "type": "address"
        }
      ],
      "name": "transferOwnership",
      "outputs": [],
      "stateMutability": "nonpayable",
      "type": "function"
    }
  ],
  "bytecode": "0x60806040523480156200001157600080fd5b50336040518060400160405280601981526020017f426c6f636b636861696e2046696e616c204578616d204e4654000000000000008152506040518060400160405280600381526020017f424645000000000000000000000000000000000000000000000000000000000081525081600090816200009091906200047a565b508060019081620000a291906200047a565b505050600073ffffffffffffffffffffffffffffffffffffffff168173ffffffffffffffffffffffffffffffffffffffff16036200011a5760006040517f1e4fbdf7000000000000000000000000000000000000000000000000000000008152600401620001119190620005a6565b60405180910390fd5b6200012b816200013a60201b60201c565b506000600c81905550620005c3565b6000600b60009054906101000a900473ffffffffffffffffffffffffffffffffffffffff16905081600b60006101000a81548173ffffffffffffffffffffffffffffffffffffffff021916908373ffffffffffffffffffffffffffffffffffffffff1602179055508173ffffffffffffffffffffffffffffffffffffffff168173ffffffffffffffffffffffffffffffffffffffff167f8be0079c531659141344cd1fd0a4f28419497f9722a3daafe3b4186f6b6457e060405160405180910390a35050565b600081519050919050565b7f4e487b7100000000000000000000000000000000000000000000000000000000600052604160045260246000fd5b7f4e487b7100000000000000000000000000000000000000000000000000000000600052602260045260246000fd5b600060028204905060018216806200028257607f821691505b6020821081036200029857620002976200023a565b5b50919050565b60008190508160005260206000209050919050565b60006020601f8301049050919050565b600082821b905092915050565b600060088302620003027fffffffffffffffffffffffffffffffffffffffffffffffffffffffffffffffff82620002c3565b6200030e8683620002c3565b95508019841693508086168417925050509392505050565b6000819050919050565b6000819050919050565b60006200035b620003556200034f8462000326565b62000330565b62000326565b9050919050565b6000819050919050565b62000377836200033a565b6200038f620003868262000362565b848454620002d0565b825550505050565b600090565b620003a662000397565b620003b38184846200036c565b505050565b5b81811015620003db57620003cf6000826200039c565b600181019050620003b9565b5050565b601f8211156200042a57620003f4816200029e565b620003ff84620002b3565b810160208510156200040f578190505b620004276200041e85620002b3565b830182620003b8565b50505b505050565b600082821c905092915050565b60006200044f600019846008026200042f565b1980831691505092915050565b60006200046a83836200043c565b9150826002028217905092915050565b620004858262000200565b67ffffffffffffffff811115620004a157620004a06200020b565b5b620004ad825462000269565b620004ba828285620003df565b600060209050601f831160018114620004f25760008415620004dd578287015190505b620004e985826200045c565b86555062000559565b601f19841662000502866200029e565b60005b828110156200052c5784890151825560018201915060208501945060208101905062000505565b868310156200054c578489015162000548601f8916826200043c565b8355505b6001600288020188555050505b505050505050565b600073ffffffffffffffffffffffffffffffffffffffff82169050919050565b60006200058e8262000561565b9050919050565b620005a08162000581565b82525050565b6000602082019050620005bd600083018462000595565b92915050565b612dab80620005d36000396000f3fe608060405234801561001057600080fd5b50600436106101375760003560e01c80634f6ccce7116100b857806395d89b411161007c57806395d89b411461034c578063a22cb4651461036a578063b88d4fde14610386578063c87b56dd146103a2578063e985e9c5146103d2578063f2fde38b1461040257610137565b80634f6ccce7146102945780636352211e146102c457806370a08231146102f4578063715018a6146103245780638da5cb5b1461032e57610137565b806323b872dd116100ff57806323b872dd146101f45780632f745c591461021057806340d097c31461024057806342842e0e1461025c57806342966c681461027857610137565b806301ffc9a71461013c57806306fdde031461016c578063081812fc1461018a578063095ea7b3146101ba57806318160ddd146101d6575b600080fd5b6101566004803603810190610151919061222c565b61041e565b6040516101639190612274565b60405180910390f35b610174610430565b604051610181919061231f565b60405180910390f35b6101a4600480360381019061019f9190612377565b6104c2565b6040516101b191906123e5565b60405180910390f35b6101d460048036038101906101cf919061242c565b6104de565b005b6101de6104f4565b6040516101eb919061247b565b60405180910390f35b61020e60048036038101906102099190612496565b610501565b005b61022a6004803603810190610225919061242c565b610603565b604051610237919061247b565b60405180910390f35b61025a600480360381019061025591906124e9565b6106ac565b005b61027660048036038101906102719190612496565b6106ff565b005b610292600480360381019061028d9190612377565b61071f565b005b6102ae60048036038101906102a99190612377565b610733565b6040516102bb919061247b565b60405180910390f35b6102de60048036038101906102d99190612377565b6107a9565b6040516102eb91906123e5565b60405180910390f35b61030e600480360381019061030991906124e9565b6107bb565b60405161031b919061247b565b60405180910390f35b61032c610875565b005b610336610889565b60405161034391906123e5565b60405180910390f35b6103546108b3565b604051610361919061231f565b60405180910390f35b610384600480360381019061037f9190612542565b610945565b005b6103a0600480360381019061039b91906126b7565b61095b565b005b6103bc60048036038101906103b79190612377565b610978565b6040516103c9919061231f565b60405180910390f35b6103ec60048036038101906103e7919061273a565b61098a565b6040516103f99190612274565b60405180910390f35b61041c600480360381019061041791906124e9565b610a1e565b005b600061042982610aa4565b9050919050565b60606000805461043f906127a9565b80601f016020809104026020016040519081016040528092919081815260200182805461046b906127a9565b80156104b85780601f1061048d576101008083540402835291602001916104b8565b820191906000526020600020905b81548152906001019060200180831161049b57829003601f168201915b5050505050905090565b60006104cd82610b1e565b506104d782610ba6565b9050919050565b6104f082826104eb610be3565b610beb565b5050565b6000600980549050905090565b600073ffffffffffffffffffffffffffffffffffffffff168273ffffffffffffffffffffffffffffffffffffffff16036105735760006040517f64a0ae9200000000000000000000000000000000000000000000000000000000815260040161056a91906123e5565b60405180910390fd5b60006105878383610582610be3565b610bfd565b90508373ffffffffffffffffffffffffffffffffffffffff168173ffffffffffffffffffffffffffffffffffffffff16146105fd578382826040517f64283d7b0000000000000000000000000000000000000000000000000000000081526004016105f4939291906127da565b60405180910390fd5b50505050565b600061060e836107bb565b82106106535782826040517fa57d13dc00000000000000000000000000000000000000000000000000000000815260040161064a929190612811565b60405180910390fd5b600760008473ffffffffffffffffffffffffffffffffffffffff1673ffffffffffffffffffffffffffffffffffffffff168152602001908152602001600020600083815260200190815260200160002054905092915050565b6106b4610c13565b6106c081600c54610c9a565b6106e4600c54604051806080016040528060428152602001612d3460429139610cb8565b600c60008154809291906106f790612869565b919050555050565b61071a8383836040518060200160405280600081525061095b565b505050565b610727610c13565b61073081610d14565b50565b600061073d6104f4565b8210610783576000826040517fa57d13dc00000000000000000000000000000000000000000000000000000000815260040161077a929190612811565b60405180910390fd5b60098281548110610797576107966128b1565b5b90600052602060002001549050919050565b60006107b482610b1e565b9050919050565b60008073ffffffffffffffffffffffffffffffffffffffff168273ffffffffffffffffffffffffffffffffffffffff160361082e5760006040517f89c62b6400000000000000000000000000000000000000000000000000000000815260040161082591906123e5565b60405180910390fd5b600360008373ffffffffffffffffffffffffffffffffffffffff1673ffffffffffffffffffffffffffffffffffffffff168152602001908152602001600020549050919050565b61087d610c13565b6108876000610d9a565b565b6000600b60009054906101000a900473ffffffffffffffffffffffffffffffffffffffff16905090565b6060600180546108c2906127a9565b80601f01602080910402602001604051908101604052809291908181526020018280546108ee906127a9565b801561093b5780601f106109105761010080835404028352916020019161093b565b820191906000526020600020905b81548152906001019060200180831161091e57829003601f168201915b5050505050905090565b610957610950610be3565b8383610e60565b5050565b610966848484610501565b61097284848484610fcf565b50505050565b606061098382611186565b9050919050565b6000600560008473ffffffffffffffffffffffffffffffffffffffff1673ffffffffffffffffffffffffffffffffffffffff16815260200190815260200160002060008373ffffffffffffffffffffffffffffffffffffffff1673ffffffffffffffffffffffffffffffffffffffff16815260200190815260200160002060009054906101000a900460ff16905092915050565b610a26610c13565b600073ffffffffffffffffffffffffffffffffffffffff168173ffffffffffffffffffffffffffffffffffffffff1603610a985760006040517f1e4fbdf7000000000000000000000000000000000000000000000000000000008152600401610a8f91906123e5565b60405180910390fd5b610aa181610d9a565b50565b60007f780e9d63000000000000000000000000000000000000000000000000000000007bffffffffffffffffffffffffffffffffffffffffffffffffffffffff1916827bffffffffffffffffffffffffffffffffffffffffffffffffffffffff19161480610b175750610b1682611299565b5b9050919050565b600080610b2a836112fa565b9050600073ffffffffffffffffffffffffffffffffffffffff168173ffffffffffffffffffffffffffffffffffffffff1603610b9d57826040517f7e273289000000000000000000000000000000000000000000000000000000008152600401610b94919061247b565b60405180910390fd5b80915050919050565b60006004600083815260200190815260200160002060009054906101000a900473ffffffffffffffffffffffffffffffffffffffff169050919050565b600033905090565b610bf88383836001611337565b505050565b6000610c0a8484846114fc565b90509392505050565b610c1b610be3565b73ffffffffffffffffffffffffffffffffffffffff16610c39610889565b73ffffffffffffffffffffffffffffffffffffffff1614610c9857610c5c610be3565b6040517f118cdaa7000000000000000000000000000000000000000000000000000000008152600401610c8f91906123e5565b60405180910390fd5b565b610cb4828260405180602001604052806000815250611619565b5050565b80600660008481526020019081526020016000209081610cd89190612a8c565b507ff8e1a15aba9398e019f0b49df1a4fde98ee17ae345cb5f6b5e2c27f5033e8ce782604051610d08919061247b565b60405180910390a15050565b6000610d236000836000610bfd565b9050600073ffffffffffffffffffffffffffffffffffffffff168173ffffffffffffffffffffffffffffffffffffffff1603610d9657816040517f7e273289000000000000000000000000000000000000000000000000000000008152600401610d8d919061247b565b60405180910390fd5b5050565b6000600b60009054906101000a900473ffffffffffffffffffffffffffffffffffffffff16905081600b60006101000a81548173ffffffffffffffffffffffffffffffffffffffff021916908373ffffffffffffffffffffffffffffffffffffffff1602179055508173ffffffffffffffffffffffffffffffffffffffff168173ffffffffffffffffffffffffffffffffffffffff167f8be0079c531659141344cd1fd0a4f28419497f9722a3daafe3b4186f6b6457e060405160405180910390a35050565b600073ffffffffffffffffffffffffffffffffffffffff168273ffffffffffffffffffffffffffffffffffffffff1603610ed157816040517f5b08ba18000000000000000000000000000000000000000000000000000000008152600401610ec891906123e5565b60405180910390fd5b80600560008573ffffffffffffffffffffffffffffffffffffffff1673ffffffffffffffffffffffffffffffffffffffff16815260200190815260200160002060008473ffffffffffffffffffffffffffffffffffffffff1673ffffffffffffffffffffffffffffffffffffffff16815260200190815260200160002060006101000a81548160ff0219169083151502179055508173ffffffffffffffffffffffffffffffffffffffff168373ffffffffffffffffffffffffffffffffffffffff167f17307eab39ab6107e8899845ad3d59bd9653f200f220920489ca2b5937696c3183604051610fc29190612274565b60405180910390a3505050565b60008373ffffffffffffffffffffffffffffffffffffffff163b1115611180578273ffffffffffffffffffffffffffffffffffffffff1663150b7a02611013610be3565b8685856040518563ffffffff1660e01b81526004016110359493929190612bb3565b6020604051808303816000875af192505050801561107157506040513d601f19601f8201168201806040525081019061106e9190612c14565b60015b6110f5573d80600081146110a1576040519150601f19603f3d011682016040523d82523d6000602084013e6110a6565b606091505b5060008151036110ed57836040517f64a0ae920000000000000000000000000000000000000000000000000000000081526004016110e491906123e5565b60405180910390fd5b805181602001fd5b63150b7a0260e01b7bffffffffffffffffffffffffffffffffffffffffffffffffffffffff1916817bffffffffffffffffffffffffffffffffffffffffffffffffffffffff19161461117e57836040517f64a0ae9200000000000000000000000000000000000000000000000000000000815260040161117591906123e5565b60405180910390fd5b505b50505050565b606061119182610b1e565b5060006006600084815260200190815260200160002080546111b2906127a9565b80601f01602080910402602001604051908101604052809291908181526020018280546111de906127a9565b801561122b5780601f106112005761010080835404028352916020019161122b565b820191906000526020600020905b81548152906001019060200180831161120e57829003601f168201915b50505050509050600061123c611635565b90506000815103611251578192505050611294565b60008251111561128657808260405160200161126e929190612c7d565b60405160208183030381529060405292505050611294565b61128f8461164c565b925050505b919050565b6000634906490660e01b7bffffffffffffffffffffffffffffffffffffffffffffffffffffffff1916827bffffffffffffffffffffffffffffffffffffffffffffffffffffffff191614806112f357506112f2826116b5565b5b9050919050565b60006002600083815260200190815260200160002060009054906101000a900473ffffffffffffffffffffffffffffffffffffffff169050919050565b80806113705750600073ffffffffffffffffffffffffffffffffffffffff168273ffffffffffffffffffffffffffffffffffffffff1614155b156114a457600061138084610b1e565b9050600073ffffffffffffffffffffffffffffffffffffffff168373ffffffffffffffffffffffffffffffffffffffff16141580156113eb57508273ffffffffffffffffffffffffffffffffffffffff168173ffffffffffffffffffffffffffffffffffffffff1614155b80156113fe57506113fc818461098a565b155b1561144057826040517fa9fbf51f00000000000000000000000000000000000000000000000000000000815260040161143791906123e5565b60405180910390fd5b81156114a257838573ffffffffffffffffffffffffffffffffffffffff168273ffffffffffffffffffffffffffffffffffffffff167f8c5be1e5ebec7d5bd14f71427d1e84f3dd0314c0f7b2291e5b200ac8c7c3b92560405160405180910390a45b505b836004600085815260200190815260200160002060006101000a81548173ffffffffffffffffffffffffffffffffffffffff021916908373ffffffffffffffffffffffffffffffffffffffff16021790555050505050565b60008061150a858585611797565b9050600073ffffffffffffffffffffffffffffffffffffffff168173ffffffffffffffffffffffffffffffffffffffff160361154e57611549846119b1565b61158d565b8473ffffffffffffffffffffffffffffffffffffffff168173ffffffffffffffffffffffffffffffffffffffff161461158c5761158b81856119fa565b5b5b600073ffffffffffffffffffffffffffffffffffffffff168573ffffffffffffffffffffffffffffffffffffffff16036115cf576115ca84611b5b565b61160e565b8473ffffffffffffffffffffffffffffffffffffffff168173ffffffffffffffffffffffffffffffffffffffff161461160d5761160c8585611c2c565b5b5b809150509392505050565b6116238383611cb7565b6116306000848484610fcf565b505050565b606060405180602001604052806000815250905090565b606061165782610b1e565b506000611662611635565b9050600081511161168257604051806020016040528060008152506116ad565b8061168c84611db0565b60405160200161169d929190612c7d565b6040516020818303038152906040525b915050919050565b60007f80ac58cd000000000000000000000000000000000000000000000000000000007bffffffffffffffffffffffffffffffffffffffffffffffffffffffff1916827bffffffffffffffffffffffffffffffffffffffffffffffffffffffff1916148061178057507f5b5e139f000000000000000000000000000000000000000000000000000000007bffffffffffffffffffffffffffffffffffffffffffffffffffffffff1916827bffffffffffffffffffffffffffffffffffffffffffffffffffffffff1916145b80611790575061178f82611e7e565b5b9050919050565b6000806117a3846112fa565b9050600073ffffffffffffffffffffffffffffffffffffffff168373ffffffffffffffffffffffffffffffffffffffff16146117e5576117e4818486611ee8565b5b600073ffffffffffffffffffffffffffffffffffffffff168173ffffffffffffffffffffffffffffffffffffffff161461187657611827600085600080611337565b6001600360008373ffffffffffffffffffffffffffffffffffffffff1673ffffffffffffffffffffffffffffffffffffffff168152602001908152602001600020600082825403925050819055505b600073ffffffffffffffffffffffffffffffffffffffff168573ffffffffffffffffffffffffffffffffffffffff16146118f9576001600360008773ffffffffffffffffffffffffffffffffffffffff1673ffffffffffffffffffffffffffffffffffffffff168152602001908152602001600020600082825401925050819055505b846002600086815260200190815260200160002060006101000a81548173ffffffffffffffffffffffffffffffffffffffff021916908373ffffffffffffffffffffffffffffffffffffffff160217905550838573ffffffffffffffffffffffffffffffffffffffff168273ffffffffffffffffffffffffffffffffffffffff167fddf252ad1be2c89b69c2b068fc378daa952ba7f163c4a11628f55a4df523b3ef60405160405180910390a4809150509392505050565b600980549050600a600083815260200190815260200160002081905550600981908060018154018082558091505060019003906000526020600020016000909190919091505550565b6000611a05836107bb565b9050600060086000848152602001908152602001600020549050818114611aea576000600760008673ffffffffffffffffffffffffffffffffffffffff1673ffffffffffffffffffffffffffffffffffffffff168152602001908152602001600020600084815260200190815260200160002054905080600760008773ffffffffffffffffffffffffffffffffffffffff1673ffffffffffffffffffffffffffffffffffffffff168152602001908152602001600020600084815260200190815260200160002081905550816008600083815260200190815260200160002081905550505b6008600084815260200190815260200160002060009055600760008573ffffffffffffffffffffffffffffffffffffffff1673ffffffffffffffffffffffffffffffffffffffff16815260200190815260200160002060008381526020019081526020016000206000905550505050565b60006001600980549050611b6f9190612ca1565b90506000600a6000848152602001908152602001600020549050600060098381548110611b9f57611b9e6128b1565b5b906000526020600020015490508060098381548110611bc157611bc06128b1565b5b906000526020600020018190555081600a600083815260200190815260200160002081905550600a6000858152602001908152602001600020600090556009805480611c1057611c0f612cd5565b5b6001900381819060005260206000200160009055905550505050565b60006001611c39846107bb565b611c439190612ca1565b905081600760008573ffffffffffffffffffffffffffffffffffffffff1673ffffffffffffffffffffffffffffffffffffffff168152602001908152602001600020600083815260200190815260200160002081905550806008600084815260200190815260200160002081905550505050565b600073ffffffffffffffffffffffffffffffffffffffff168273ffffffffffffffffffffffffffffffffffffffff1603611d295760006040517f64a0ae92000000000000000000000000000000000000000000000000000000008152600401611d2091906123e5565b60405180910390fd5b6000611d3783836000610bfd565b9050600073ffffffffffffffffffffffffffffffffffffffff168173ffffffffffffffffffffffffffffffffffffffff1614611dab5760006040517f73c6ac6e000000000000000000000000000000000000000000000000000000008152600401611da291906123e5565b60405180910390fd5b505050565b606060006001611dbf84611fac565b01905060008167ffffffffffffffff811115611dde57611ddd61258c565b5b6040519080825280601f01601f191660200182016040528015611e105781602001600182028036833780820191505090505b509050600082602001820190505b600115611e73578080600190039150507f3031323334353637383961626364656600000000000000000000000000000000600a86061a8153600a8581611e6757611e66612d04565b5b04945060008503611e1e575b819350505050919050565b60007f01ffc9a7000000000000000000000000000000000000000000000000000000007bffffffffffffffffffffffffffffffffffffffffffffffffffffffff1916827bffffffffffffffffffffffffffffffffffffffffffffffffffffffff1916149050919050565b611ef38383836120ff565b611fa757600073ffffffffffffffffffffffffffffffffffffffff168373ffffffffffffffffffffffffffffffffffffffff1603611f6857806040517f7e273289000000000000000000000000000000000000000000000000000000008152600401611f5f919061247b565b60405180910390fd5b81816040517f177e802f000000000000000000000000000000000000000000000000000000008152600401611f9e929190612811565b60405180910390fd5b505050565b600080600090507a184f03e93ff9f4daa797ed6e38ed64bf6a1f010000000000000000831061200a577a184f03e93ff9f4daa797ed6e38ed64bf6a1f010000000000000000838161200057611fff612d04565b5b0492506040810190505b6d04ee2d6d415b85acef81000000008310612047576d04ee2d6d415b85acef8100000000838161203d5761203c612d04565b5b0492506020810190505b662386f26fc10000831061207657662386f26fc10000838161206c5761206b612d04565b5b0492506010810190505b6305f5e100831061209f576305f5e100838161209557612094612d04565b5b0492506008810190505b61271083106120c45761271083816120ba576120b9612d04565b5b0492506004810190505b606483106120e757606483816120dd576120dc612d04565b5b0492506002810190505b600a83106120f6576001810190505b80915050919050565b60008073ffffffffffffffffffffffffffffffffffffffff168373ffffffffffffffffffffffffffffffffffffffff16141580156121b757508273ffffffffffffffffffffffffffffffffffffffff168473ffffffffffffffffffffffffffffffffffffffff1614806121785750612177848461098a565b5b806121b657508273ffffffffffffffffffffffffffffffffffffffff1661219e83610ba6565b73ffffffffffffffffffffffffffffffffffffffff16145b5b90509392505050565b6000604051905090565b600080fd5b600080fd5b60007fffffffff0000000000000000000000000000000000000000000000000000000082169050919050565b612209816121d4565b811461221457600080fd5b50565b60008135905061222681612200565b92915050565b600060208284031215612242576122416121ca565b5b600061225084828501612217565b91505092915050565b60008115159050919050565b61226e81612259565b82525050565b60006020820190506122896000830184612265565b92915050565b600081519050919050565b600082825260208201905092915050565b60005b838110156122c95780820151818401526020810190506122ae565b60008484015250505050565b6000601f19601f8301169050919050565b60006122f18261228f565b6122fb818561229a565b935061230b8185602086016122ab565b612314816122d5565b840191505092915050565b6000602082019050818103600083015261233981846122e6565b905092915050565b6000819050919050565b61235481612341565b811461235f57600080fd5b50565b6000813590506123718161234b565b92915050565b60006020828403121561238d5761238c6121ca565b5b600061239b84828501612362565b91505092915050565b600073ffffffffffffffffffffffffffffffffffffffff82169050919050565b60006123cf826123a4565b9050919050565b6123df816123c4565b82525050565b60006020820190506123fa60008301846123d6565b92915050565b612409816123c4565b811461241457600080fd5b50565b60008135905061242681612400565b92915050565b60008060408385031215612443576124426121ca565b5b600061245185828601612417565b925050602061246285828601612362565b9150509250929050565b61247581612341565b82525050565b6000602082019050612490600083018461246c565b92915050565b6000806000606084860312156124af576124ae6121ca565b5b60006124bd86828701612417565b93505060206124ce86828701612417565b92505060406124df86828701612362565b9150509250925092565b6000602082840312156124ff576124fe6121ca565b5b600061250d84828501612417565b91505092915050565b61251f81612259565b811461252a57600080fd5b50565b60008135905061253c81612516565b92915050565b60008060408385031215612559576125586121ca565b5b600061256785828601612417565b92505060206125788582860161252d565b9150509250929050565b600080fd5b600080fd5b7f4e487b7100000000000000000000000000000000000000000000000000000000600052604160045260246000fd5b6125c4826122d5565b810181811067ffffffffffffffff821117156125e3576125e261258c565b5b80604052505050565b60006125f66121c0565b905061260282826125bb565b919050565b600067ffffffffffffffff8211156126225761262161258c565b5b61262b826122d5565b9050602081019050919050565b82818337600083830152505050565b600061265a61265584612607565b6125ec565b90508281526020810184848401111561267657612675612587565b5b612681848285612638565b509392505050565b600082601f83011261269e5761269d612582565b5b81356126ae848260208601612647565b91505092915050565b600080600080608085870312156126d1576126d06121ca565b5b60006126df87828801612417565b94505060206126f087828801612417565b935050604061270187828801612362565b925050606085013567ffffffffffffffff811115612722576127216121cf565b5b61272e87828801612689565b91505092959194509250565b60008060408385031215612751576127506121ca565b5b600061275f85828601612417565b925050602061277085828601612417565b9150509250929050565b7f4e487b7100000000000000000000000000000000000000000000000000000000600052602260045260246000fd5b600060028204905060018216806127c157607f821691505b6020821081036127d4576127d361277a565b5b50919050565b60006060820190506127ef60008301866123d6565b6127fc602083018561246c565b61280960408301846123d6565b949350505050565b600060408201905061282660008301856123d6565b612833602083018461246c565b9392505050565b7f4e487b7100000000000000000000000000000000000000000000000000000000600052601160045260246000fd5b600061287482612341565b91507fffffffffffffffffffffffffffffffffffffffffffffffffffffffffffffffff82036128a6576128a561283a565b5b600182019050919050565b7f4e487b7100000000000000000000000000000000000000000000000000000000600052603260045260246000fd5b60008190508160005260206000209050919050565b60006020601f8301049050919050565b600082821b905092915050565b6000600883026129427fffffffffffffffffffffffffffffffffffffffffffffffffffffffffffffffff82612905565b61294c8683612905565b95508019841693508086168417925050509392505050565b6000819050919050565b600061298961298461297f84612341565b612964565b612341565b9050919050565b6000819050919050565b6129a38361296e565b6129b76129af82612990565b848454612912565b825550505050565b600090565b6129cc6129bf565b6129d781848461299a565b505050565b5b818110156129fb576129f06000826129c4565b6001810190506129dd565b5050565b601f821115612a4057612a11816128e0565b612a1a846128f5565b81016020851015612a29578190505b612a3d612a35856128f5565b8301826129dc565b50505b505050565b600082821c905092915050565b6000612a6360001984600802612a45565b1980831691505092915050565b6000612a7c8383612a52565b9150826002028217905092915050565b612a958261228f565b67ffffffffffffffff811115612aae57612aad61258c565b5b612ab882546127a9565b612ac38282856129ff565b600060209050601f831160018114612af65760008415612ae4578287015190505b612aee8582612a70565b865550612b56565b601f198416612b04866128e0565b60005b82811015612b2c57848901518255600182019150602085019450602081019050612b07565b86831015612b495784890151612b45601f891682612a52565b8355505b6001600288020188555050505b505050505050565b600081519050919050565b600082825260208201905092915050565b6000612b8582612b5e565b612b8f8185612b69565b9350612b9f8185602086016122ab565b612ba8816122d5565b840191505092915050565b6000608082019050612bc860008301876123d6565b612bd560208301866123d6565b612be2604083018561246c565b8181036060830152612bf48184612b7a565b905095945050505050565b600081519050612c0e81612200565b92915050565b600060208284031215612c2a57612c296121ca565b5b6000612c3884828501612bff565b91505092915050565b600081905092915050565b6000612c578261228f565b612c618185612c41565b9350612c718185602086016122ab565b80840191505092915050565b6000612c898285612c4c565b9150612c958284612c4c565b91508190509392505050565b6000612cac82612341565b9150612cb783612341565b9250828203905081811115612ccf57612cce61283a565b5b92915050565b7f4e487b7100000000000000000000000000000000000000000000000000000000600052603160045260246000fd5b7f4e487b7100000000000000000000000000000000000000000000000000000000600052601260045260246000fdfe697066733a2f2f62616679626569686c64756936686d636d6368366b7164677a75687135616562356b6f656d68626173636e6d7a7a3368687962726e347266673269a26469706673582212200d4387b485c046c533490bec9c4b681f8c2e6b4b195ef50e003a45febbcdb67464736f6c63430008140033",
  "linkReferences": {},
  "deployedLinkReferences": {}
}